{
	"data": {
		"bytecode": {
			"linkReferences": {},
			"object": "608060405234801561000f575f80fd5b506102f98061001d5f395ff3fe608060405234801561000f575f80fd5b506004361061003f575f3560e01c80632fdbbb9b1461004357806391f5de3814610061578063ca23f3f11461007f575b5f80fd5b61004b61009b565b60405161005891906101a7565b60405180910390f35b61006961010f565b60405161007691906101df565b60405180910390f35b61009960048036038101906100949190610226565b610114565b005b606060125f5411156100c75760405180606001604052806029815260200161029b60299139905061010c565b60125f54036100f05760405180606001604052806026815260200161025260269139905061010c565b6040518060600160405280602381526020016102786023913990505b90565b5f5481565b805f8190555050565b5f81519050919050565b5f82825260208201905092915050565b5f5b83811015610154578082015181840152602081019050610139565b5f8484015250505050565b5f601f19601f8301169050919050565b5f6101798261011d565b6101838185610127565b9350610193818560208601610137565b61019c8161015f565b840191505092915050565b5f6020820190508181035f8301526101bf818461016f565b905092915050565b5f819050919050565b6101d9816101c7565b82525050565b5f6020820190506101f25f8301846101d0565b92915050565b5f80fd5b610205816101c7565b811461020f575f80fd5b50565b5f81359050610220816101fc565b92915050565b5f6020828403121561023b5761023a6101f8565b5b5f61024884828501610212565b9150509291505056fe6163616261732064652063756d706c69722031382c2070756564657320696e6772657361722065726573206d656e6f732065646164202c206e6f20706564657320696e67726573617270756564657320696e67726573617220706f727175652065726573206d61796f722064652065646164a26469706673582212207cbf8ab57a893e6e38765c96442321156b7cc803b350f5b11b7e6d28a6eebc6564736f6c63430008180033",
			"opcodes": "PUSH1 0x80 PUSH1 0x40 MSTORE CALLVALUE DUP1 ISZERO PUSH2 0xF JUMPI PUSH0 DUP1 REVERT JUMPDEST POP PUSH2 0x2F9 DUP1 PUSH2 0x1D PUSH0 CODECOPY PUSH0 RETURN INVALID PUSH1 0x80 PUSH1 0x40 MSTORE CALLVALUE DUP1 ISZERO PUSH2 0xF JUMPI PUSH0 DUP1 REVERT JUMPDEST POP PUSH1 0x4 CALLDATASIZE LT PUSH2 0x3F JUMPI PUSH0 CALLDATALOAD PUSH1 0xE0 SHR DUP1 PUSH4 0x2FDBBB9B EQ PUSH2 0x43 JUMPI DUP1 PUSH4 0x91F5DE38 EQ PUSH2 0x61 JUMPI DUP1 PUSH4 0xCA23F3F1 EQ PUSH2 0x7F JUMPI JUMPDEST PUSH0 DUP1 REVERT JUMPDEST PUSH2 0x4B PUSH2 0x9B JUMP JUMPDEST PUSH1 0x40 MLOAD PUSH2 0x58 SWAP2 SWAP1 PUSH2 0x1A7 JUMP JUMPDEST PUSH1 0x40 MLOAD DUP1 SWAP2 SUB SWAP1 RETURN JUMPDEST PUSH2 0x69 PUSH2 0x10F JUMP JUMPDEST PUSH1 0x40 MLOAD PUSH2 0x76 SWAP2 SWAP1 PUSH2 0x1DF JUMP JUMPDEST PUSH1 0x40 MLOAD DUP1 SWAP2 SUB SWAP1 RETURN JUMPDEST PUSH2 0x99 PUSH1 0x4 DUP1 CALLDATASIZE SUB DUP2 ADD SWAP1 PUSH2 0x94 SWAP2 SWAP1 PUSH2 0x226 JUMP JUMPDEST PUSH2 0x114 JUMP JUMPDEST STOP JUMPDEST PUSH1 0x60 PUSH1 0x12 PUSH0 SLOAD GT ISZERO PUSH2 0xC7 JUMPI PUSH1 0x40 MLOAD DUP1 PUSH1 0x60 ADD PUSH1 0x40 MSTORE DUP1 PUSH1 0x29 DUP2 MSTORE PUSH1 0x20 ADD PUSH2 0x29B PUSH1 0x29 SWAP2 CODECOPY SWAP1 POP PUSH2 0x10C JUMP JUMPDEST PUSH1 0x12 PUSH0 SLOAD SUB PUSH2 0xF0 JUMPI PUSH1 0x40 MLOAD DUP1 PUSH1 0x60 ADD PUSH1 0x40 MSTORE DUP1 PUSH1 0x26 DUP2 MSTORE PUSH1 0x20 ADD PUSH2 0x252 PUSH1 0x26 SWAP2 CODECOPY SWAP1 POP PUSH2 0x10C JUMP JUMPDEST PUSH1 0x40 MLOAD DUP1 PUSH1 0x60 ADD PUSH1 0x40 MSTORE DUP1 PUSH1 0x23 DUP2 MSTORE PUSH1 0x20 ADD PUSH2 0x278 PUSH1 0x23 SWAP2 CODECOPY SWAP1 POP JUMPDEST SWAP1 JUMP JUMPDEST PUSH0 SLOAD DUP2 JUMP JUMPDEST DUP1 PUSH0 DUP2 SWAP1 SSTORE POP POP JUMP JUMPDEST PUSH0 DUP2 MLOAD SWAP1 POP SWAP2 SWAP1 POP JUMP JUMPDEST PUSH0 DUP3 DUP3 MSTORE PUSH1 0x20 DUP3 ADD SWAP1 POP SWAP3 SWAP2 POP POP JUMP JUMPDEST PUSH0 JUMPDEST DUP4 DUP2 LT ISZERO PUSH2 0x154 JUMPI DUP1 DUP3 ADD MLOAD DUP2 DUP5 ADD MSTORE PUSH1 0x20 DUP2 ADD SWAP1 POP PUSH2 0x139 JUMP JUMPDEST PUSH0 DUP5 DUP5 ADD MSTORE POP POP POP POP JUMP JUMPDEST PUSH0 PUSH1 0x1F NOT PUSH1 0x1F DUP4 ADD AND SWAP1 POP SWAP2 SWAP1 POP JUMP JUMPDEST PUSH0 PUSH2 0x179 DUP3 PUSH2 0x11D JUMP JUMPDEST PUSH2 0x183 DUP2 DUP6 PUSH2 0x127 JUMP JUMPDEST SWAP4 POP PUSH2 0x193 DUP2 DUP6 PUSH1 0x20 DUP7 ADD PUSH2 0x137 JUMP JUMPDEST PUSH2 0x19C DUP2 PUSH2 0x15F JUMP JUMPDEST DUP5 ADD SWAP2 POP POP SWAP3 SWAP2 POP POP JUMP JUMPDEST PUSH0 PUSH1 0x20 DUP3 ADD SWAP1 POP DUP2 DUP2 SUB PUSH0 DUP4 ADD MSTORE PUSH2 0x1BF DUP2 DUP5 PUSH2 0x16F JUMP JUMPDEST SWAP1 POP SWAP3 SWAP2 POP POP JUMP JUMPDEST PUSH0 DUP2 SWAP1 POP SWAP2 SWAP1 POP JUMP JUMPDEST PUSH2 0x1D9 DUP2 PUSH2 0x1C7 JUMP JUMPDEST DUP3 MSTORE POP POP JUMP JUMPDEST PUSH0 PUSH1 0x20 DUP3 ADD SWAP1 POP PUSH2 0x1F2 PUSH0 DUP4 ADD DUP5 PUSH2 0x1D0 JUMP JUMPDEST SWAP3 SWAP2 POP POP JUMP JUMPDEST PUSH0 DUP1 REVERT JUMPDEST PUSH2 0x205 DUP2 PUSH2 0x1C7 JUMP JUMPDEST DUP2 EQ PUSH2 0x20F JUMPI PUSH0 DUP1 REVERT JUMPDEST POP JUMP JUMPDEST PUSH0 DUP2 CALLDATALOAD SWAP1 POP PUSH2 0x220 DUP2 PUSH2 0x1FC JUMP JUMPDEST SWAP3 SWAP2 POP POP JUMP JUMPDEST PUSH0 PUSH1 0x20 DUP3 DUP5 SUB SLT ISZERO PUSH2 0x23B JUMPI PUSH2 0x23A PUSH2 0x1F8 JUMP JUMPDEST JUMPDEST PUSH0 PUSH2 0x248 DUP5 DUP3 DUP6 ADD PUSH2 0x212 JUMP JUMPDEST SWAP2 POP POP SWAP3 SWAP2 POP POP JUMP INVALID PUSH2 0x6361 PUSH3 0x617320 PUSH5 0x652063756D PUSH17 0x6C69722031382C2070756564657320696E PUSH8 0x7265736172206572 PUSH6 0x73206D656E6F PUSH20 0x2065646164202C206E6F20706564657320696E67 PUSH19 0x6573617270756564657320696E677265736172 KECCAK256 PUSH17 0x6F727175652065726573206D61796F7220 PUSH5 0x6520656461 PUSH5 0xA264697066 PUSH20 0x582212207CBF8AB57A893E6E38765C9644232115 PUSH12 0x7CC803B350F5B11B7E6D28A6 0xEE 0xBC PUSH6 0x64736F6C6343 STOP ADDMOD XOR STOP CALLER "
		},
		"gasEstimates": {
			"creation": {
				"codeDepositCost": "152200",
				"executionCost": "194",
				"totalCost": "152394"
			},
			"external": {
				"establecer_numero(uint256)": "22536",
				"mensaje()": "infinite",
				"numero()": "2424"
			}
		},
		"methodIdentifiers": {
			"establecer_numero(uint256)": "ca23f3f1",
			"mensaje()": "2fdbbb9b",
			"numero()": "91f5de38"
		}
	},
	"abi": [
		{
			"inputs": [
				{
					"internalType": "uint256",
					"name": "_numero",
					"type": "uint256"
				}
			],
			"name": "establecer_numero",
			"outputs": [],
			"stateMutability": "nonpayable",
			"type": "function"
		},
		{
			"inputs": [],
			"name": "mensaje",
			"outputs": [
				{
					"internalType": "string",
					"name": "",
					"type": "string"
				}
			],
			"stateMutability": "view",
			"type": "function"
		},
		{
			"inputs": [],
			"name": "numero",
			"outputs": [
				{
					"internalType": "uint256",
					"name": "",
					"type": "uint256"
				}
			],
			"stateMutability": "view",
			"type": "function"
		}
	]
}