{
	"clases sintaxis_avalanche/portero_bar.sol": {
		"portero_bar": {
			"abi": [
				{
					"inputs": [
						{
							"internalType": "uint256",
							"name": "_edad_init",
							"type": "uint256"
						}
					],
					"stateMutability": "nonpayable",
					"type": "constructor"
				},
				{
					"inputs": [],
					"name": "edad_init",
					"outputs": [
						{
							"internalType": "uint256",
							"name": "",
							"type": "uint256"
						}
					],
					"stateMutability": "view",
					"type": "function"
				},
				{
					"inputs": [
						{
							"internalType": "uint256",
							"name": "_numero",
							"type": "uint256"
						}
					],
					"name": "establecer_numero",
					"outputs": [],
					"stateMutability": "nonpayable",
					"type": "function"
				},
				{
					"inputs": [],
					"name": "mensaje",
					"outputs": [
						{
							"internalType": "string",
							"name": "",
							"type": "string"
						}
					],
					"stateMutability": "view",
					"type": "function"
				},
				{
					"inputs": [],
					"name": "numero",
					"outputs": [
						{
							"internalType": "uint256",
							"name": "",
							"type": "uint256"
						}
					],
					"stateMutability": "view",
					"type": "function"
				}
			],
			"devdoc": {
				"kind": "dev",
				"methods": {},
				"version": 1
			},
			"evm": {
				"assembly": "    /* \"clases sintaxis_avalanche/portero_bar.sol\":141:956  contract portero_bar{... */\n  mstore(0x40, 0x80)\n    /* \"clases sintaxis_avalanche/portero_bar.sol\":273:346  constructor (uint256 _edad_init){... */\n  callvalue\n  dup1\n  iszero\n  tag_1\n  jumpi\n  0x00\n  dup1\n  revert\ntag_1:\n  pop\n  mload(0x40)\n  sub(codesize, bytecodeSize)\n  dup1\n  bytecodeSize\n  dup4\n  codecopy\n  dup2\n  dup2\n  add\n  0x40\n  mstore\n  dup2\n  add\n  swap1\n  tag_2\n  swap2\n  swap1\n  tag_3\n  jump\t// in\ntag_2:\n    /* \"clases sintaxis_avalanche/portero_bar.sol\":328:338  _edad_init */\n  dup1\n    /* \"clases sintaxis_avalanche/portero_bar.sol\":316:325  edad_init */\n  0x01\n    /* \"clases sintaxis_avalanche/portero_bar.sol\":316:338  edad_init = _edad_init */\n  dup2\n  swap1\n  sstore\n  pop\n    /* \"clases sintaxis_avalanche/portero_bar.sol\":273:346  constructor (uint256 _edad_init){... */\n  pop\n    /* \"clases sintaxis_avalanche/portero_bar.sol\":141:956  contract portero_bar{... */\n  jump(tag_6)\n    /* \"#utility.yul\":88:205   */\ntag_8:\n    /* \"#utility.yul\":197:198   */\n  0x00\n    /* \"#utility.yul\":194:195   */\n  dup1\n    /* \"#utility.yul\":187:199   */\n  revert\n    /* \"#utility.yul\":334:411   */\ntag_10:\n    /* \"#utility.yul\":371:378   */\n  0x00\n    /* \"#utility.yul\":400:405   */\n  dup2\n    /* \"#utility.yul\":389:405   */\n  swap1\n  pop\n    /* \"#utility.yul\":334:411   */\n  swap2\n  swap1\n  pop\n  jump\t// out\n    /* \"#utility.yul\":417:539   */\ntag_11:\n    /* \"#utility.yul\":490:514   */\n  tag_19\n    /* \"#utility.yul\":508:513   */\n  dup2\n    /* \"#utility.yul\":490:514   */\n  tag_10\n  jump\t// in\ntag_19:\n    /* \"#utility.yul\":483:488   */\n  dup2\n    /* \"#utility.yul\":480:515   */\n  eq\n    /* \"#utility.yul\":470:533   */\n  tag_20\n  jumpi\n    /* \"#utility.yul\":529:530   */\n  0x00\n    /* \"#utility.yul\":526:527   */\n  dup1\n    /* \"#utility.yul\":519:531   */\n  revert\n    /* \"#utility.yul\":470:533   */\ntag_20:\n    /* \"#utility.yul\":417:539   */\n  pop\n  jump\t// out\n    /* \"#utility.yul\":545:688   */\ntag_12:\n    /* \"#utility.yul\":602:607   */\n  0x00\n    /* \"#utility.yul\":633:639   */\n  dup2\n    /* \"#utility.yul\":627:640   */\n  mload\n    /* \"#utility.yul\":618:640   */\n  swap1\n  pop\n    /* \"#utility.yul\":649:682   */\n  tag_22\n    /* \"#utility.yul\":676:681   */\n  dup2\n    /* \"#utility.yul\":649:682   */\n  tag_11\n  jump\t// in\ntag_22:\n    /* \"#utility.yul\":545:688   */\n  swap3\n  swap2\n  pop\n  pop\n  jump\t// out\n    /* \"#utility.yul\":694:1045   */\ntag_3:\n    /* \"#utility.yul\":764:770   */\n  0x00\n    /* \"#utility.yul\":813:815   */\n  0x20\n    /* \"#utility.yul\":801:810   */\n  dup3\n    /* \"#utility.yul\":792:799   */\n  dup5\n    /* \"#utility.yul\":788:811   */\n  sub\n    /* \"#utility.yul\":784:816   */\n  slt\n    /* \"#utility.yul\":781:900   */\n  iszero\n  tag_24\n  jumpi\n    /* \"#utility.yul\":819:898   */\n  tag_25\n  tag_8\n  jump\t// in\ntag_25:\n    /* \"#utility.yul\":781:900   */\ntag_24:\n    /* \"#utility.yul\":939:940   */\n  0x00\n    /* \"#utility.yul\":964:1028   */\n  tag_26\n    /* \"#utility.yul\":1020:1027   */\n  dup5\n    /* \"#utility.yul\":1011:1017   */\n  dup3\n    /* \"#utility.yul\":1000:1009   */\n  dup6\n    /* \"#utility.yul\":996:1018   */\n  add\n    /* \"#utility.yul\":964:1028   */\n  tag_12\n  jump\t// in\ntag_26:\n    /* \"#utility.yul\":954:1028   */\n  swap2\n  pop\n    /* \"#utility.yul\":910:1038   */\n  pop\n    /* \"#utility.yul\":694:1045   */\n  swap3\n  swap2\n  pop\n  pop\n  jump\t// out\n    /* \"clases sintaxis_avalanche/portero_bar.sol\":141:956  contract portero_bar{... */\ntag_6:\n  dataSize(sub_0)\n  dup1\n  dataOffset(sub_0)\n  0x00\n  codecopy\n  0x00\n  return\nstop\n\nsub_0: assembly {\n        /* \"clases sintaxis_avalanche/portero_bar.sol\":141:956  contract portero_bar{... */\n      mstore(0x40, 0x80)\n      callvalue\n      dup1\n      iszero\n      tag_1\n      jumpi\n      0x00\n      dup1\n      revert\n    tag_1:\n      pop\n      jumpi(tag_2, lt(calldatasize, 0x04))\n      shr(0xe0, calldataload(0x00))\n      dup1\n      0x2fdbbb9b\n      eq\n      tag_3\n      jumpi\n      dup1\n      0x91f5de38\n      eq\n      tag_4\n      jumpi\n      dup1\n      0x93a5b211\n      eq\n      tag_5\n      jumpi\n      dup1\n      0xca23f3f1\n      eq\n      tag_6\n      jumpi\n    tag_2:\n      0x00\n      dup1\n      revert\n        /* \"clases sintaxis_avalanche/portero_bar.sol\":451:951  function mensaje()public view returns (string memory){... */\n    tag_3:\n      tag_7\n      tag_8\n      jump\t// in\n    tag_7:\n      mload(0x40)\n      tag_9\n      swap2\n      swap1\n      tag_10\n      jump\t// in\n    tag_9:\n      mload(0x40)\n      dup1\n      swap2\n      sub\n      swap1\n      return\n        /* \"clases sintaxis_avalanche/portero_bar.sol\":168:189  uint256 public numero */\n    tag_4:\n      tag_11\n      tag_12\n      jump\t// in\n    tag_11:\n      mload(0x40)\n      tag_13\n      swap2\n      swap1\n      tag_14\n      jump\t// in\n    tag_13:\n      mload(0x40)\n      dup1\n      swap2\n      sub\n      swap1\n      return\n        /* \"clases sintaxis_avalanche/portero_bar.sol\":240:264  uint256 public edad_init */\n    tag_5:\n      tag_15\n      tag_16\n      jump\t// in\n    tag_15:\n      mload(0x40)\n      tag_17\n      swap2\n      swap1\n      tag_14\n      jump\t// in\n    tag_17:\n      mload(0x40)\n      dup1\n      swap2\n      sub\n      swap1\n      return\n        /* \"clases sintaxis_avalanche/portero_bar.sol\":356:443  function establecer_numero(uint256 _numero)public {... */\n    tag_6:\n      tag_18\n      0x04\n      dup1\n      calldatasize\n      sub\n      dup2\n      add\n      swap1\n      tag_19\n      swap2\n      swap1\n      tag_20\n      jump\t// in\n    tag_19:\n      tag_21\n      jump\t// in\n    tag_18:\n      stop\n        /* \"clases sintaxis_avalanche/portero_bar.sol\":451:951  function mensaje()public view returns (string memory){... */\n    tag_8:\n        /* \"clases sintaxis_avalanche/portero_bar.sol\":490:503  string memory */\n      0x60\n        /* \"clases sintaxis_avalanche/portero_bar.sol\":567:576  edad_init */\n      sload(0x01)\n        /* \"clases sintaxis_avalanche/portero_bar.sol\":558:564  numero */\n      sload(0x00)\n        /* \"clases sintaxis_avalanche/portero_bar.sol\":558:576  numero>  edad_init */\n      gt\n        /* \"clases sintaxis_avalanche/portero_bar.sol\":554:916  if (numero>  edad_init){... */\n      iszero\n      tag_23\n      jumpi\n        /* \"clases sintaxis_avalanche/portero_bar.sol\":592:642  return \"puedes ingresar porque eres mayor de edad\" */\n      mload(0x40)\n      dup1\n      0x60\n      add\n      0x40\n      mstore\n      dup1\n      0x29\n      dup2\n      mstore\n      0x20\n      add\n      data_f65ef3aed7843c3b62d0692850a248d75b2dc26a914896d9da9c4df9add7aecb\n      0x29\n      swap2\n      codecopy\n      swap1\n      pop\n      jump(tag_22)\n        /* \"clases sintaxis_avalanche/portero_bar.sol\":554:916  if (numero>  edad_init){... */\n    tag_23:\n        /* \"clases sintaxis_avalanche/portero_bar.sol\":674:683  edad_init */\n      sload(0x01)\n        /* \"clases sintaxis_avalanche/portero_bar.sol\":665:671  numero */\n      sload(0x00)\n        /* \"clases sintaxis_avalanche/portero_bar.sol\":665:683  numero ==edad_init */\n      sub\n        /* \"clases sintaxis_avalanche/portero_bar.sol\":661:916  if (numero ==edad_init) {   //condicional secundaria... */\n      tag_25\n      jumpi\n        /* \"clases sintaxis_avalanche/portero_bar.sol\":727:790  return \"acabas de cumplir la mayoria de edad, puedes ingresar \" */\n      mload(0x40)\n      dup1\n      0x60\n      add\n      0x40\n      mstore\n      dup1\n      0x36\n      dup2\n      mstore\n      0x20\n      add\n      data_280d0156cbf7f686500a0df0e10c7ec7356ffcb4e8b1e9fa0f2432b63e65429c\n      0x36\n      swap2\n      codecopy\n      swap1\n      pop\n      jump(tag_22)\n        /* \"clases sintaxis_avalanche/portero_bar.sol\":661:916  if (numero ==edad_init) {   //condicional secundaria... */\n    tag_25:\n        /* \"clases sintaxis_avalanche/portero_bar.sol\":841:888  return \"eres menor de edad , no pedes ingresar\" */\n      mload(0x40)\n      dup1\n      0x60\n      add\n      0x40\n      mstore\n      dup1\n      0x26\n      dup2\n      mstore\n      0x20\n      add\n      data_1cebe5dcf43ea512ee7709110e7dcb79b327bf7eec760f424ae1d5796f677784\n      0x26\n      swap2\n      codecopy\n      swap1\n      pop\n        /* \"clases sintaxis_avalanche/portero_bar.sol\":451:951  function mensaje()public view returns (string memory){... */\n    tag_22:\n      swap1\n      jump\t// out\n        /* \"clases sintaxis_avalanche/portero_bar.sol\":168:189  uint256 public numero */\n    tag_12:\n      sload(0x00)\n      dup2\n      jump\t// out\n        /* \"clases sintaxis_avalanche/portero_bar.sol\":240:264  uint256 public edad_init */\n    tag_16:\n      sload(0x01)\n      dup2\n      jump\t// out\n        /* \"clases sintaxis_avalanche/portero_bar.sol\":356:443  function establecer_numero(uint256 _numero)public {... */\n    tag_21:\n        /* \"clases sintaxis_avalanche/portero_bar.sol\":426:433  _numero */\n      dup1\n        /* \"clases sintaxis_avalanche/portero_bar.sol\":417:423  numero */\n      0x00\n        /* \"clases sintaxis_avalanche/portero_bar.sol\":417:433  numero  =_numero */\n      dup2\n      swap1\n      sstore\n      pop\n        /* \"clases sintaxis_avalanche/portero_bar.sol\":356:443  function establecer_numero(uint256 _numero)public {... */\n      pop\n      jump\t// out\n        /* \"#utility.yul\":7:106   */\n    tag_28:\n        /* \"#utility.yul\":59:65   */\n      0x00\n        /* \"#utility.yul\":93:98   */\n      dup2\n        /* \"#utility.yul\":87:99   */\n      mload\n        /* \"#utility.yul\":77:99   */\n      swap1\n      pop\n        /* \"#utility.yul\":7:106   */\n      swap2\n      swap1\n      pop\n      jump\t// out\n        /* \"#utility.yul\":112:281   */\n    tag_29:\n        /* \"#utility.yul\":196:207   */\n      0x00\n        /* \"#utility.yul\":230:236   */\n      dup3\n        /* \"#utility.yul\":225:228   */\n      dup3\n        /* \"#utility.yul\":218:237   */\n      mstore\n        /* \"#utility.yul\":270:274   */\n      0x20\n        /* \"#utility.yul\":265:268   */\n      dup3\n        /* \"#utility.yul\":261:275   */\n      add\n        /* \"#utility.yul\":246:275   */\n      swap1\n      pop\n        /* \"#utility.yul\":112:281   */\n      swap3\n      swap2\n      pop\n      pop\n      jump\t// out\n        /* \"#utility.yul\":287:533   */\n    tag_30:\n        /* \"#utility.yul\":368:369   */\n      0x00\n        /* \"#utility.yul\":378:491   */\n    tag_44:\n        /* \"#utility.yul\":392:398   */\n      dup4\n        /* \"#utility.yul\":389:390   */\n      dup2\n        /* \"#utility.yul\":386:399   */\n      lt\n        /* \"#utility.yul\":378:491   */\n      iszero\n      tag_46\n      jumpi\n        /* \"#utility.yul\":477:478   */\n      dup1\n        /* \"#utility.yul\":472:475   */\n      dup3\n        /* \"#utility.yul\":468:479   */\n      add\n        /* \"#utility.yul\":462:480   */\n      mload\n        /* \"#utility.yul\":458:459   */\n      dup2\n        /* \"#utility.yul\":453:456   */\n      dup5\n        /* \"#utility.yul\":449:460   */\n      add\n        /* \"#utility.yul\":442:481   */\n      mstore\n        /* \"#utility.yul\":414:416   */\n      0x20\n        /* \"#utility.yul\":411:412   */\n      dup2\n        /* \"#utility.yul\":407:417   */\n      add\n        /* \"#utility.yul\":402:417   */\n      swap1\n      pop\n        /* \"#utility.yul\":378:491   */\n      jump(tag_44)\n    tag_46:\n        /* \"#utility.yul\":525:526   */\n      0x00\n        /* \"#utility.yul\":516:522   */\n      dup5\n        /* \"#utility.yul\":511:514   */\n      dup5\n        /* \"#utility.yul\":507:523   */\n      add\n        /* \"#utility.yul\":500:527   */\n      mstore\n        /* \"#utility.yul\":349:533   */\n      pop\n        /* \"#utility.yul\":287:533   */\n      pop\n      pop\n      pop\n      jump\t// out\n        /* \"#utility.yul\":539:641   */\n    tag_31:\n        /* \"#utility.yul\":580:586   */\n      0x00\n        /* \"#utility.yul\":631:633   */\n      0x1f\n        /* \"#utility.yul\":627:634   */\n      not\n        /* \"#utility.yul\":622:624   */\n      0x1f\n        /* \"#utility.yul\":615:620   */\n      dup4\n        /* \"#utility.yul\":611:625   */\n      add\n        /* \"#utility.yul\":607:635   */\n      and\n        /* \"#utility.yul\":597:635   */\n      swap1\n      pop\n        /* \"#utility.yul\":539:641   */\n      swap2\n      swap1\n      pop\n      jump\t// out\n        /* \"#utility.yul\":647:1024   */\n    tag_32:\n        /* \"#utility.yul\":735:738   */\n      0x00\n        /* \"#utility.yul\":763:802   */\n      tag_49\n        /* \"#utility.yul\":796:801   */\n      dup3\n        /* \"#utility.yul\":763:802   */\n      tag_28\n      jump\t// in\n    tag_49:\n        /* \"#utility.yul\":818:889   */\n      tag_50\n        /* \"#utility.yul\":882:888   */\n      dup2\n        /* \"#utility.yul\":877:880   */\n      dup6\n        /* \"#utility.yul\":818:889   */\n      tag_29\n      jump\t// in\n    tag_50:\n        /* \"#utility.yul\":811:889   */\n      swap4\n      pop\n        /* \"#utility.yul\":898:963   */\n      tag_51\n        /* \"#utility.yul\":956:962   */\n      dup2\n        /* \"#utility.yul\":951:954   */\n      dup6\n        /* \"#utility.yul\":944:948   */\n      0x20\n        /* \"#utility.yul\":937:942   */\n      dup7\n        /* \"#utility.yul\":933:949   */\n      add\n        /* \"#utility.yul\":898:963   */\n      tag_30\n      jump\t// in\n    tag_51:\n        /* \"#utility.yul\":988:1017   */\n      tag_52\n        /* \"#utility.yul\":1010:1016   */\n      dup2\n        /* \"#utility.yul\":988:1017   */\n      tag_31\n      jump\t// in\n    tag_52:\n        /* \"#utility.yul\":983:986   */\n      dup5\n        /* \"#utility.yul\":979:1018   */\n      add\n        /* \"#utility.yul\":972:1018   */\n      swap2\n      pop\n        /* \"#utility.yul\":739:1024   */\n      pop\n        /* \"#utility.yul\":647:1024   */\n      swap3\n      swap2\n      pop\n      pop\n      jump\t// out\n        /* \"#utility.yul\":1030:1343   */\n    tag_10:\n        /* \"#utility.yul\":1143:1147   */\n      0x00\n        /* \"#utility.yul\":1181:1183   */\n      0x20\n        /* \"#utility.yul\":1170:1179   */\n      dup3\n        /* \"#utility.yul\":1166:1184   */\n      add\n        /* \"#utility.yul\":1158:1184   */\n      swap1\n      pop\n        /* \"#utility.yul\":1230:1239   */\n      dup2\n        /* \"#utility.yul\":1224:1228   */\n      dup2\n        /* \"#utility.yul\":1220:1240   */\n      sub\n        /* \"#utility.yul\":1216:1217   */\n      0x00\n        /* \"#utility.yul\":1205:1214   */\n      dup4\n        /* \"#utility.yul\":1201:1218   */\n      add\n        /* \"#utility.yul\":1194:1241   */\n      mstore\n        /* \"#utility.yul\":1258:1336   */\n      tag_54\n        /* \"#utility.yul\":1331:1335   */\n      dup2\n        /* \"#utility.yul\":1322:1328   */\n      dup5\n        /* \"#utility.yul\":1258:1336   */\n      tag_32\n      jump\t// in\n    tag_54:\n        /* \"#utility.yul\":1250:1336   */\n      swap1\n      pop\n        /* \"#utility.yul\":1030:1343   */\n      swap3\n      swap2\n      pop\n      pop\n      jump\t// out\n        /* \"#utility.yul\":1349:1426   */\n    tag_33:\n        /* \"#utility.yul\":1386:1393   */\n      0x00\n        /* \"#utility.yul\":1415:1420   */\n      dup2\n        /* \"#utility.yul\":1404:1420   */\n      swap1\n      pop\n        /* \"#utility.yul\":1349:1426   */\n      swap2\n      swap1\n      pop\n      jump\t// out\n        /* \"#utility.yul\":1432:1550   */\n    tag_34:\n        /* \"#utility.yul\":1519:1543   */\n      tag_57\n        /* \"#utility.yul\":1537:1542   */\n      dup2\n        /* \"#utility.yul\":1519:1543   */\n      tag_33\n      jump\t// in\n    tag_57:\n        /* \"#utility.yul\":1514:1517   */\n      dup3\n        /* \"#utility.yul\":1507:1544   */\n      mstore\n        /* \"#utility.yul\":1432:1550   */\n      pop\n      pop\n      jump\t// out\n        /* \"#utility.yul\":1556:1778   */\n    tag_14:\n        /* \"#utility.yul\":1649:1653   */\n      0x00\n        /* \"#utility.yul\":1687:1689   */\n      0x20\n        /* \"#utility.yul\":1676:1685   */\n      dup3\n        /* \"#utility.yul\":1672:1690   */\n      add\n        /* \"#utility.yul\":1664:1690   */\n      swap1\n      pop\n        /* \"#utility.yul\":1700:1771   */\n      tag_59\n        /* \"#utility.yul\":1768:1769   */\n      0x00\n        /* \"#utility.yul\":1757:1766   */\n      dup4\n        /* \"#utility.yul\":1753:1770   */\n      add\n        /* \"#utility.yul\":1744:1750   */\n      dup5\n        /* \"#utility.yul\":1700:1771   */\n      tag_34\n      jump\t// in\n    tag_59:\n        /* \"#utility.yul\":1556:1778   */\n      swap3\n      swap2\n      pop\n      pop\n      jump\t// out\n        /* \"#utility.yul\":1865:1982   */\n    tag_36:\n        /* \"#utility.yul\":1974:1975   */\n      0x00\n        /* \"#utility.yul\":1971:1972   */\n      dup1\n        /* \"#utility.yul\":1964:1976   */\n      revert\n        /* \"#utility.yul\":2111:2233   */\n    tag_38:\n        /* \"#utility.yul\":2184:2208   */\n      tag_64\n        /* \"#utility.yul\":2202:2207   */\n      dup2\n        /* \"#utility.yul\":2184:2208   */\n      tag_33\n      jump\t// in\n    tag_64:\n        /* \"#utility.yul\":2177:2182   */\n      dup2\n        /* \"#utility.yul\":2174:2209   */\n      eq\n        /* \"#utility.yul\":2164:2227   */\n      tag_65\n      jumpi\n        /* \"#utility.yul\":2223:2224   */\n      0x00\n        /* \"#utility.yul\":2220:2221   */\n      dup1\n        /* \"#utility.yul\":2213:2225   */\n      revert\n        /* \"#utility.yul\":2164:2227   */\n    tag_65:\n        /* \"#utility.yul\":2111:2233   */\n      pop\n      jump\t// out\n        /* \"#utility.yul\":2239:2378   */\n    tag_39:\n        /* \"#utility.yul\":2285:2290   */\n      0x00\n        /* \"#utility.yul\":2323:2329   */\n      dup2\n        /* \"#utility.yul\":2310:2330   */\n      calldataload\n        /* \"#utility.yul\":2301:2330   */\n      swap1\n      pop\n        /* \"#utility.yul\":2339:2372   */\n      tag_67\n        /* \"#utility.yul\":2366:2371   */\n      dup2\n        /* \"#utility.yul\":2339:2372   */\n      tag_38\n      jump\t// in\n    tag_67:\n        /* \"#utility.yul\":2239:2378   */\n      swap3\n      swap2\n      pop\n      pop\n      jump\t// out\n        /* \"#utility.yul\":2384:2713   */\n    tag_20:\n        /* \"#utility.yul\":2443:2449   */\n      0x00\n        /* \"#utility.yul\":2492:2494   */\n      0x20\n        /* \"#utility.yul\":2480:2489   */\n      dup3\n        /* \"#utility.yul\":2471:2478   */\n      dup5\n        /* \"#utility.yul\":2467:2490   */\n      sub\n        /* \"#utility.yul\":2463:2495   */\n      slt\n        /* \"#utility.yul\":2460:2579   */\n      iszero\n      tag_69\n      jumpi\n        /* \"#utility.yul\":2498:2577   */\n      tag_70\n      tag_36\n      jump\t// in\n    tag_70:\n        /* \"#utility.yul\":2460:2579   */\n    tag_69:\n        /* \"#utility.yul\":2618:2619   */\n      0x00\n        /* \"#utility.yul\":2643:2696   */\n      tag_71\n        /* \"#utility.yul\":2688:2695   */\n      dup5\n        /* \"#utility.yul\":2679:2685   */\n      dup3\n        /* \"#utility.yul\":2668:2677   */\n      dup6\n        /* \"#utility.yul\":2664:2686   */\n      add\n        /* \"#utility.yul\":2643:2696   */\n      tag_39\n      jump\t// in\n    tag_71:\n        /* \"#utility.yul\":2633:2696   */\n      swap2\n      pop\n        /* \"#utility.yul\":2589:2706   */\n      pop\n        /* \"#utility.yul\":2384:2713   */\n      swap3\n      swap2\n      pop\n      pop\n      jump\t// out\n    stop\n    data_1cebe5dcf43ea512ee7709110e7dcb79b327bf7eec760f424ae1d5796f677784 65726573206d656e6f722064652065646164202c206e6f20706564657320696e677265736172\n    data_280d0156cbf7f686500a0df0e10c7ec7356ffcb4e8b1e9fa0f2432b63e65429c 6163616261732064652063756d706c6972206c61206d61796f72696120646520656461642c2070756564657320696e67726573617220\n    data_f65ef3aed7843c3b62d0692850a248d75b2dc26a914896d9da9c4df9add7aecb 70756564657320696e67726573617220706f727175652065726573206d61796f722064652065646164\n\n    auxdata: 0xa264697066735822122039930dff309a3850f8999bc7a4f9d81e3aa5b4bf4e44a4fcb65dc27ca623fb8264736f6c63430008180033\n}\n",
				"bytecode": {
					"linkReferences": {},
					"object": "608060405234801561000f575f80fd5b506040516103ea3803806103ea83398181016040528101906100319190610075565b80600181905550506100a0565b5f80fd5b5f819050919050565b61005481610042565b811461005e575f80fd5b50565b5f8151905061006f8161004b565b92915050565b5f6020828403121561008a5761008961003e565b5b5f61009784828501610061565b91505092915050565b61033d806100ad5f395ff3fe608060405234801561000f575f80fd5b506004361061004a575f3560e01c80632fdbbb9b1461004e57806391f5de381461006c57806393a5b2111461008a578063ca23f3f1146100a8575b5f80fd5b6100566100c4565b60405161006391906101d8565b60405180910390f35b61007461013a565b6040516100819190610210565b60405180910390f35b61009261013f565b60405161009f9190610210565b60405180910390f35b6100c260048036038101906100bd9190610257565b610145565b005b60606001545f5411156100f1576040518060600160405280602981526020016102df602991399050610137565b6001545f540361011b576040518060600160405280603681526020016102a9603691399050610137565b6040518060600160405280602681526020016102836026913990505b90565b5f5481565b60015481565b805f8190555050565b5f81519050919050565b5f82825260208201905092915050565b5f5b8381101561018557808201518184015260208101905061016a565b5f8484015250505050565b5f601f19601f8301169050919050565b5f6101aa8261014e565b6101b48185610158565b93506101c4818560208601610168565b6101cd81610190565b840191505092915050565b5f6020820190508181035f8301526101f081846101a0565b905092915050565b5f819050919050565b61020a816101f8565b82525050565b5f6020820190506102235f830184610201565b92915050565b5f80fd5b610236816101f8565b8114610240575f80fd5b50565b5f813590506102518161022d565b92915050565b5f6020828403121561026c5761026b610229565b5b5f61027984828501610243565b9150509291505056fe65726573206d656e6f722064652065646164202c206e6f20706564657320696e6772657361726163616261732064652063756d706c6972206c61206d61796f72696120646520656461642c2070756564657320696e6772657361722070756564657320696e67726573617220706f727175652065726573206d61796f722064652065646164a264697066735822122039930dff309a3850f8999bc7a4f9d81e3aa5b4bf4e44a4fcb65dc27ca623fb8264736f6c63430008180033",
					"opcodes": "PUSH1 0x80 PUSH1 0x40 MSTORE CALLVALUE DUP1 ISZERO PUSH2 0xF JUMPI PUSH0 DUP1 REVERT JUMPDEST POP PUSH1 0x40 MLOAD PUSH2 0x3EA CODESIZE SUB DUP1 PUSH2 0x3EA DUP4 CODECOPY DUP2 DUP2 ADD PUSH1 0x40 MSTORE DUP2 ADD SWAP1 PUSH2 0x31 SWAP2 SWAP1 PUSH2 0x75 JUMP JUMPDEST DUP1 PUSH1 0x1 DUP2 SWAP1 SSTORE POP POP PUSH2 0xA0 JUMP JUMPDEST PUSH0 DUP1 REVERT JUMPDEST PUSH0 DUP2 SWAP1 POP SWAP2 SWAP1 POP JUMP JUMPDEST PUSH2 0x54 DUP2 PUSH2 0x42 JUMP JUMPDEST DUP2 EQ PUSH2 0x5E JUMPI PUSH0 DUP1 REVERT JUMPDEST POP JUMP JUMPDEST PUSH0 DUP2 MLOAD SWAP1 POP PUSH2 0x6F DUP2 PUSH2 0x4B JUMP JUMPDEST SWAP3 SWAP2 POP POP JUMP JUMPDEST PUSH0 PUSH1 0x20 DUP3 DUP5 SUB SLT ISZERO PUSH2 0x8A JUMPI PUSH2 0x89 PUSH2 0x3E JUMP JUMPDEST JUMPDEST PUSH0 PUSH2 0x97 DUP5 DUP3 DUP6 ADD PUSH2 0x61 JUMP JUMPDEST SWAP2 POP POP SWAP3 SWAP2 POP POP JUMP JUMPDEST PUSH2 0x33D DUP1 PUSH2 0xAD PUSH0 CODECOPY PUSH0 RETURN INVALID PUSH1 0x80 PUSH1 0x40 MSTORE CALLVALUE DUP1 ISZERO PUSH2 0xF JUMPI PUSH0 DUP1 REVERT JUMPDEST POP PUSH1 0x4 CALLDATASIZE LT PUSH2 0x4A JUMPI PUSH0 CALLDATALOAD PUSH1 0xE0 SHR DUP1 PUSH4 0x2FDBBB9B EQ PUSH2 0x4E JUMPI DUP1 PUSH4 0x91F5DE38 EQ PUSH2 0x6C JUMPI DUP1 PUSH4 0x93A5B211 EQ PUSH2 0x8A JUMPI DUP1 PUSH4 0xCA23F3F1 EQ PUSH2 0xA8 JUMPI JUMPDEST PUSH0 DUP1 REVERT JUMPDEST PUSH2 0x56 PUSH2 0xC4 JUMP JUMPDEST PUSH1 0x40 MLOAD PUSH2 0x63 SWAP2 SWAP1 PUSH2 0x1D8 JUMP JUMPDEST PUSH1 0x40 MLOAD DUP1 SWAP2 SUB SWAP1 RETURN JUMPDEST PUSH2 0x74 PUSH2 0x13A JUMP JUMPDEST PUSH1 0x40 MLOAD PUSH2 0x81 SWAP2 SWAP1 PUSH2 0x210 JUMP JUMPDEST PUSH1 0x40 MLOAD DUP1 SWAP2 SUB SWAP1 RETURN JUMPDEST PUSH2 0x92 PUSH2 0x13F JUMP JUMPDEST PUSH1 0x40 MLOAD PUSH2 0x9F SWAP2 SWAP1 PUSH2 0x210 JUMP JUMPDEST PUSH1 0x40 MLOAD DUP1 SWAP2 SUB SWAP1 RETURN JUMPDEST PUSH2 0xC2 PUSH1 0x4 DUP1 CALLDATASIZE SUB DUP2 ADD SWAP1 PUSH2 0xBD SWAP2 SWAP1 PUSH2 0x257 JUMP JUMPDEST PUSH2 0x145 JUMP JUMPDEST STOP JUMPDEST PUSH1 0x60 PUSH1 0x1 SLOAD PUSH0 SLOAD GT ISZERO PUSH2 0xF1 JUMPI PUSH1 0x40 MLOAD DUP1 PUSH1 0x60 ADD PUSH1 0x40 MSTORE DUP1 PUSH1 0x29 DUP2 MSTORE PUSH1 0x20 ADD PUSH2 0x2DF PUSH1 0x29 SWAP2 CODECOPY SWAP1 POP PUSH2 0x137 JUMP JUMPDEST PUSH1 0x1 SLOAD PUSH0 SLOAD SUB PUSH2 0x11B JUMPI PUSH1 0x40 MLOAD DUP1 PUSH1 0x60 ADD PUSH1 0x40 MSTORE DUP1 PUSH1 0x36 DUP2 MSTORE PUSH1 0x20 ADD PUSH2 0x2A9 PUSH1 0x36 SWAP2 CODECOPY SWAP1 POP PUSH2 0x137 JUMP JUMPDEST PUSH1 0x40 MLOAD DUP1 PUSH1 0x60 ADD PUSH1 0x40 MSTORE DUP1 PUSH1 0x26 DUP2 MSTORE PUSH1 0x20 ADD PUSH2 0x283 PUSH1 0x26 SWAP2 CODECOPY SWAP1 POP JUMPDEST SWAP1 JUMP JUMPDEST PUSH0 SLOAD DUP2 JUMP JUMPDEST PUSH1 0x1 SLOAD DUP2 JUMP JUMPDEST DUP1 PUSH0 DUP2 SWAP1 SSTORE POP POP JUMP JUMPDEST PUSH0 DUP2 MLOAD SWAP1 POP SWAP2 SWAP1 POP JUMP JUMPDEST PUSH0 DUP3 DUP3 MSTORE PUSH1 0x20 DUP3 ADD SWAP1 POP SWAP3 SWAP2 POP POP JUMP JUMPDEST PUSH0 JUMPDEST DUP4 DUP2 LT ISZERO PUSH2 0x185 JUMPI DUP1 DUP3 ADD MLOAD DUP2 DUP5 ADD MSTORE PUSH1 0x20 DUP2 ADD SWAP1 POP PUSH2 0x16A JUMP JUMPDEST PUSH0 DUP5 DUP5 ADD MSTORE POP POP POP POP JUMP JUMPDEST PUSH0 PUSH1 0x1F NOT PUSH1 0x1F DUP4 ADD AND SWAP1 POP SWAP2 SWAP1 POP JUMP JUMPDEST PUSH0 PUSH2 0x1AA DUP3 PUSH2 0x14E JUMP JUMPDEST PUSH2 0x1B4 DUP2 DUP6 PUSH2 0x158 JUMP JUMPDEST SWAP4 POP PUSH2 0x1C4 DUP2 DUP6 PUSH1 0x20 DUP7 ADD PUSH2 0x168 JUMP JUMPDEST PUSH2 0x1CD DUP2 PUSH2 0x190 JUMP JUMPDEST DUP5 ADD SWAP2 POP POP SWAP3 SWAP2 POP POP JUMP JUMPDEST PUSH0 PUSH1 0x20 DUP3 ADD SWAP1 POP DUP2 DUP2 SUB PUSH0 DUP4 ADD MSTORE PUSH2 0x1F0 DUP2 DUP5 PUSH2 0x1A0 JUMP JUMPDEST SWAP1 POP SWAP3 SWAP2 POP POP JUMP JUMPDEST PUSH0 DUP2 SWAP1 POP SWAP2 SWAP1 POP JUMP JUMPDEST PUSH2 0x20A DUP2 PUSH2 0x1F8 JUMP JUMPDEST DUP3 MSTORE POP POP JUMP JUMPDEST PUSH0 PUSH1 0x20 DUP3 ADD SWAP1 POP PUSH2 0x223 PUSH0 DUP4 ADD DUP5 PUSH2 0x201 JUMP JUMPDEST SWAP3 SWAP2 POP POP JUMP JUMPDEST PUSH0 DUP1 REVERT JUMPDEST PUSH2 0x236 DUP2 PUSH2 0x1F8 JUMP JUMPDEST DUP2 EQ PUSH2 0x240 JUMPI PUSH0 DUP1 REVERT JUMPDEST POP JUMP JUMPDEST PUSH0 DUP2 CALLDATALOAD SWAP1 POP PUSH2 0x251 DUP2 PUSH2 0x22D JUMP JUMPDEST SWAP3 SWAP2 POP POP JUMP JUMPDEST PUSH0 PUSH1 0x20 DUP3 DUP5 SUB SLT ISZERO PUSH2 0x26C JUMPI PUSH2 0x26B PUSH2 0x229 JUMP JUMPDEST JUMPDEST PUSH0 PUSH2 0x279 DUP5 DUP3 DUP6 ADD PUSH2 0x243 JUMP JUMPDEST SWAP2 POP POP SWAP3 SWAP2 POP POP JUMP INVALID PUSH6 0x726573206D65 PUSH15 0x6F722064652065646164202C206E6F KECCAK256 PUSH17 0x6564657320696E67726573617261636162 PUSH2 0x7320 PUSH5 0x652063756D PUSH17 0x6C6972206C61206D61796F726961206465 KECCAK256 PUSH6 0x6461642C2070 PUSH22 0x6564657320696E677265736172207075656465732069 PUSH15 0x67726573617220706F727175652065 PUSH19 0x6573206D61796F722064652065646164A26469 PUSH17 0x66735822122039930DFF309A3850F8999B 0xC7 LOG4 0xF9 0xD8 0x1E GASPRICE 0xA5 0xB4 0xBF 0x4E PREVRANDAO LOG4 0xFC 0xB6 TSTORE 0xC2 PUSH29 0xA623FB8264736F6C634300081800330000000000000000000000000000 "
				},
				"gasEstimates": {
					"creation": {
						"codeDepositCost": "165800",
						"executionCost": "infinite",
						"totalCost": "infinite"
					},
					"external": {
						"edad_init()": "2447",
						"establecer_numero(uint256)": "22558",
						"mensaje()": "infinite",
						"numero()": "2424"
					}
				},
				"methodIdentifiers": {
					"edad_init()": "93a5b211",
					"establecer_numero(uint256)": "ca23f3f1",
					"mensaje()": "2fdbbb9b",
					"numero()": "91f5de38"
				}
			},
			"storageLayout": {
				"storage": [
					{
						"astId": 3,
						"contract": "clases sintaxis_avalanche/portero_bar.sol:portero_bar",
						"label": "numero",
						"offset": 0,
						"slot": "0",
						"type": "t_uint256"
					},
					{
						"astId": 6,
						"contract": "clases sintaxis_avalanche/portero_bar.sol:portero_bar",
						"label": "edad_init",
						"offset": 0,
						"slot": "1",
						"type": "t_uint256"
					}
				],
				"types": {
					"t_uint256": {
						"encoding": "inplace",
						"label": "uint256",
						"numberOfBytes": "32"
					}
				}
			},
			"userdoc": {
				"kind": "user",
				"methods": {
					"edad_init()": {
						"notice": "variable de estado que almacena la edad"
					}
				},
				"version": 1
			}
		}
	}
}